{
  "address": "0x6d7a8e9DAfa9606F21d5f8FA8a1a2A31e7687091",
  "abi": [
    {
      "inputs": [
        {
          "internalType": "contract ILendingPool",
          "name": "_lendingPool",
          "type": "address"
        }
      ],
      "stateMutability": "nonpayable",
      "type": "constructor"
    },
    {
      "inputs": [],
      "name": "lendingPool",
      "outputs": [
        {
          "internalType": "contract ILendingPool",
          "name": "",
          "type": "address"
        }
      ],
      "stateMutability": "view",
      "type": "function"
    },
    {
      "inputs": [
        {
          "internalType": "bytes[]",
          "name": "data",
          "type": "bytes[]"
        }
      ],
      "name": "multicall",
      "outputs": [
        {
          "internalType": "bytes[]",
          "name": "results",
          "type": "bytes[]"
        }
      ],
      "stateMutability": "nonpayable",
      "type": "function"
    },
    {
      "inputs": [
        {
          "internalType": "address",
          "name": "sender",
          "type": "address"
        },
        {
          "internalType": "address",
          "name": "fromToken",
          "type": "address"
        },
        {
          "internalType": "uint256",
          "name": "fromAmount",
          "type": "uint256"
        },
        {
          "internalType": "address",
          "name": "toToken",
          "type": "address"
        },
        {
          "internalType": "uint256",
          "name": "toAmount",
          "type": "uint256"
        }
      ],
      "name": "swapWithBorrow",
      "outputs": [],
      "stateMutability": "nonpayable",
      "type": "function"
    }
  ],
  "transactionHash": "0xd1be55648caf1b24a66907418760338a4868acceaa19626b95413545ebeaee9e",
  "args": [
    "0x75FB4953bB6122a25A6411032c9BD415f1b93282"
  ],
  "numDeployments": 1,
  "solcInputHash": "87ab37997ed9ad0e9df36fafacc34c0e",
  "bytecode": "0x60806040523480156200001157600080fd5b5060405162000f5238038062000f52833981810160405281019062000037919062000105565b600160008190555080600160006101000a81548173ffffffffffffffffffffffffffffffffffffffff021916908373ffffffffffffffffffffffffffffffffffffffff1602179055505062000137565b600080fd5b600073ffffffffffffffffffffffffffffffffffffffff82169050919050565b6000620000b9826200008c565b9050919050565b6000620000cd82620000ac565b9050919050565b620000df81620000c0565b8114620000eb57600080fd5b50565b600081519050620000ff81620000d4565b92915050565b6000602082840312156200011e576200011d62000087565b5b60006200012e84828501620000ee565b91505092915050565b610e0b80620001476000396000f3fe608060405234801561001057600080fd5b50600436106100415760003560e01c8063a59a997314610046578063ac9650d814610064578063bcad14b514610094575b600080fd5b61004e6100b0565b60405161005b9190610604565b60405180910390f35b61007e6004803603810190610079919061068e565b6100d6565b60405161008b919061082d565b60405180910390f35b6100ae60048036038101906100a991906108c3565b6101e2565b005b600160009054906101000a900473ffffffffffffffffffffffffffffffffffffffff1681565b60608282905067ffffffffffffffff8111156100f5576100f461093e565b5b60405190808252806020026020018201604052801561012857816020015b60608152602001906001900390816101135790505b50905060005b838390508110156101db576101aa308585848181106101505761014f61096d565b5b905060200281019061016291906109ab565b8080601f016020809104026020016040519081016040528093929190818152602001838380828437600081840152601f19601f82011690508083019250505050505050610391565b8282815181106101bd576101bc61096d565b5b602002602001018190525080806101d390610a3d565b91505061012e565b5092915050565b6101ea6103be565b8373ffffffffffffffffffffffffffffffffffffffff166323b872dd8630866040518463ffffffff1660e01b815260040161022793929190610aa3565b6020604051808303816000875af1158015610246573d6000803e3d6000fd5b505050506040513d601f19601f8201168201806040525081019061026a9190610b12565b50600160009054906101000a900473ffffffffffffffffffffffffffffffffffffffff1673ffffffffffffffffffffffffffffffffffffffff1663a415bcad8383600180306040518663ffffffff1660e01b81526004016102cf959493929190610bb9565b600060405180830381600087803b1580156102e957600080fd5b505af11580156102fd573d6000803e3d6000fd5b505050508173ffffffffffffffffffffffffffffffffffffffff166323b872dd3087846040518463ffffffff1660e01b815260040161033e93929190610aa3565b6020604051808303816000875af115801561035d573d6000803e3d6000fd5b505050506040513d601f19601f820116820180604052508101906103819190610b12565b5061038a61040d565b5050505050565b60606103b68383604051806060016040528060278152602001610daf60279139610417565b905092915050565b600260005403610403576040517f08c379a00000000000000000000000000000000000000000000000000000000081526004016103fa90610c69565b60405180910390fd5b6002600081905550565b6001600081905550565b60606000808573ffffffffffffffffffffffffffffffffffffffff16856040516104419190610cc5565b600060405180830381855af49150503d806000811461047c576040519150601f19603f3d011682016040523d82523d6000602084013e610481565b606091505b50915091506104928683838761049d565b925050509392505050565b606083156104ff5760008351036104f7576104b785610512565b6104f6576040517f08c379a00000000000000000000000000000000000000000000000000000000081526004016104ed90610d28565b60405180910390fd5b5b82905061050a565b6105098383610535565b5b949350505050565b6000808273ffffffffffffffffffffffffffffffffffffffff163b119050919050565b6000825111156105485781518083602001fd5b806040517f08c379a000000000000000000000000000000000000000000000000000000000815260040161057c9190610d8c565b60405180910390fd5b600073ffffffffffffffffffffffffffffffffffffffff82169050919050565b6000819050919050565b60006105ca6105c56105c084610585565b6105a5565b610585565b9050919050565b60006105dc826105af565b9050919050565b60006105ee826105d1565b9050919050565b6105fe816105e3565b82525050565b600060208201905061061960008301846105f5565b92915050565b600080fd5b600080fd5b600080fd5b600080fd5b600080fd5b60008083601f84011261064e5761064d610629565b5b8235905067ffffffffffffffff81111561066b5761066a61062e565b5b60208301915083602082028301111561068757610686610633565b5b9250929050565b600080602083850312156106a5576106a461061f565b5b600083013567ffffffffffffffff8111156106c3576106c2610624565b5b6106cf85828601610638565b92509250509250929050565b600081519050919050565b600082825260208201905092915050565b6000819050602082019050919050565b600081519050919050565b600082825260208201905092915050565b60005b83811015610741578082015181840152602081019050610726565b60008484015250505050565b6000601f19601f8301169050919050565b600061076982610707565b6107738185610712565b9350610783818560208601610723565b61078c8161074d565b840191505092915050565b60006107a3838361075e565b905092915050565b6000602082019050919050565b60006107c3826106db565b6107cd81856106e6565b9350836020820285016107df856106f7565b8060005b8581101561081b57848403895281516107fc8582610797565b9450610807836107ab565b925060208a019950506001810190506107e3565b50829750879550505050505092915050565b6000602082019050818103600083015261084781846107b8565b905092915050565b600061085a82610585565b9050919050565b61086a8161084f565b811461087557600080fd5b50565b60008135905061088781610861565b92915050565b6000819050919050565b6108a08161088d565b81146108ab57600080fd5b50565b6000813590506108bd81610897565b92915050565b600080600080600060a086880312156108df576108de61061f565b5b60006108ed88828901610878565b95505060206108fe88828901610878565b945050604061090f888289016108ae565b935050606061092088828901610878565b9250506080610931888289016108ae565b9150509295509295909350565b7f4e487b7100000000000000000000000000000000000000000000000000000000600052604160045260246000fd5b7f4e487b7100000000000000000000000000000000000000000000000000000000600052603260045260246000fd5b600080fd5b600080fd5b600080fd5b600080833560016020038436030381126109c8576109c761099c565b5b80840192508235915067ffffffffffffffff8211156109ea576109e96109a1565b5b602083019250600182023603831315610a0657610a056109a6565b5b509250929050565b7f4e487b7100000000000000000000000000000000000000000000000000000000600052601160045260246000fd5b6000610a488261088d565b91507fffffffffffffffffffffffffffffffffffffffffffffffffffffffffffffffff8203610a7a57610a79610a0e565b5b600182019050919050565b610a8e8161084f565b82525050565b610a9d8161088d565b82525050565b6000606082019050610ab86000830186610a85565b610ac56020830185610a85565b610ad26040830184610a94565b949350505050565b60008115159050919050565b610aef81610ada565b8114610afa57600080fd5b50565b600081519050610b0c81610ae6565b92915050565b600060208284031215610b2857610b2761061f565b5b6000610b3684828501610afd565b91505092915050565b6000819050919050565b6000610b64610b5f610b5a84610b3f565b6105a5565b61088d565b9050919050565b610b7481610b49565b82525050565b600061ffff82169050919050565b6000610ba3610b9e610b9984610b3f565b6105a5565b610b7a565b9050919050565b610bb381610b88565b82525050565b600060a082019050610bce6000830188610a85565b610bdb6020830187610a94565b610be86040830186610b6b565b610bf56060830185610baa565b610c026080830184610a85565b9695505050505050565b600082825260208201905092915050565b7f5265656e7472616e637947756172643a207265656e7472616e742063616c6c00600082015250565b6000610c53601f83610c0c565b9150610c5e82610c1d565b602082019050919050565b60006020820190508181036000830152610c8281610c46565b9050919050565b600081905092915050565b6000610c9f82610707565b610ca98185610c89565b9350610cb9818560208601610723565b80840191505092915050565b6000610cd18284610c94565b915081905092915050565b7f416464726573733a2063616c6c20746f206e6f6e2d636f6e7472616374000000600082015250565b6000610d12601d83610c0c565b9150610d1d82610cdc565b602082019050919050565b60006020820190508181036000830152610d4181610d05565b9050919050565b600081519050919050565b6000610d5e82610d48565b610d688185610c0c565b9350610d78818560208601610723565b610d818161074d565b840191505092915050565b60006020820190508181036000830152610da68184610d53565b90509291505056fe416464726573733a206c6f772d6c6576656c2064656c65676174652063616c6c206661696c6564a264697066735822122063003ba87d3d5ec26b8c7bc6248a8032f733fb5aa01814da6f23b1636492969064736f6c63430008130033",
  "devdoc": {
    "kind": "dev",
    "methods": {
      "multicall(bytes[])": {
        "custom:oz-upgrades-unsafe-allow-reachable": "delegatecall",
        "details": "Receives and executes a batch of function calls on this contract."
      }
    },
    "version": 1
  },
  "userdoc": {
    "kind": "user",
    "methods": {},
    "version": 1
  },
  "storageLayout": {
    "storage": [
      {
        "astId": 10,
        "contract": "src/USwapLP.sol:USwapLP",
        "label": "_status",
        "offset": 0,
        "slot": "0",
        "type": "t_uint256"
      },
      {
        "astId": 623,
        "contract": "src/USwapLP.sol:USwapLP",
        "label": "lendingPool",
        "offset": 0,
        "slot": "1",
        "type": "t_contract(ILendingPool)1067"
      }
    ],
    "types": {
      "t_contract(ILendingPool)1067": {
        "encoding": "inplace",
        "label": "contract ILendingPool",
        "numberOfBytes": "20"
      },
      "t_uint256": {
        "encoding": "inplace",
        "label": "uint256",
        "numberOfBytes": "32"
      }
    }
  }
}